:020000040800F2
:100000000008002089010008E5010008E50100085A
:10001000E5010008E5010008E50100080000000016
:10002000000000000000000000000000E5010008E2
:10003000E501000800000000E5010008E5010008F6
:10004000E5010008E5010008E5010008E5010008F8
:10005000E5010008E5010008E5010008E5010008E8
:10006000E5010008E5010008E5010008E5010008D8
:10007000E5010008E5010008E5010008E5010008C8
:10008000E5010008E5010008E5010008E5010008B8
:10009000E5010008E5010008E5010008E5010008A8
:1000A000E5010008E5010008E5010008E501000898
:1000B000E5010008E5010008E5010008E501000888
:1000C000E5010008E5010008E5010008E501000878
:1000D000E5010008E5010008E5010008E501000868
:1000E000E5010008E5010008E5010008E501000858
:1000F000E5010008E5010008E5010008E501000848
:10010000E5010008E5010008E5010008E501000837
:10011000E5010008E5010008E5010008E501000827
:10012000E5010008E5010008E5010008E501000817
:10013000E5010008E5010008E5010008E501000807
:10014000E5010008E5010008E5010008E5010008F7
:10015000E5010008E5010008E5010008E5010008E7
:10016000E5010008E5010008E5010008E5010008D7
:10017000E5010008E5010008E5010008E5010008C7
:10018000E5010008E501000880B582B000AF104B22
:100190007B60104B3B6007E03B681A1D3A607A6851
:1001A000111D796012681A603A680B4B9A42F3D3BA
:1001B0000A480B494FF000028842B8BF40F8042BB0
:1001C000FFF6FAAF00F012F80837BD4680BD00BF59
:1001D000E0040008000000200000002000000020D3
:1001E0000000002080B400AFFEE700BF80B582B001
:1001F00000AF0820012100F089F800F049F841F62D
:10020000FF737B600F48012100F02CF90346012B9E
:1002100009D17B680C4A82FB0312D210DB17D31A78
:100220007A6813447B6000233B6006E03868796895
:1002300000F00CF83B6801333B603B68032BF5DDB5
:10024000E0E700BF000002401F85EB5180B582B09F
:1002500000AF786039600C4B7A6853F822309BB25B
:100260000A48194600F018F93B68184600F03EF8B5
:10027000054B7A6853F822309BB20448194600F0C7
:1002800019F90837BD4680BDD0040008000C0240B3
:1002900080B582B000AF4FF470433B6001233B71E7
:1002A00002237B710023BB710023FB713B460D4889
:1002B000194600F049F80120012100F027F8012338
:1002C0003B6000233B7102237B710023BB7102233F
:1002D000FB713B460448194600F036F80837BD4626
:1002E00080BD00BF000C02400000024080B483B01B
:1002F00000AF786000BF7B685A1E7A60002BFAD18D
:100300000C37BD465DF8047B704700BF80B483B0F6
:1003100000AF78600B46FB70FB78002B06D0094BD2
:10032000084A116B7A680A431A6306E0054B054ACE
:10033000116B7A68D2430A401A630C37BD465DF8E8
:10034000047B70470038024080B487B000AF78600B
:10035000396000237B6100233B610023FB600023A5
:100360007B6176E07B69012202FA03F33B613B6823
:100370001A683B691340FB60FA683B699A4265D191
:100380007B681A687B695B00032101FA03F3DB4396
:100390001A407B681A607B681A683B681B791946AB
:1003A0007B695B0001FA03F31A437B681A603B68C0
:1003B0001B79012B03D03B681B79022B2ED17B6864
:1003C0009A687B695B00032101FA03F3DB431A405F
:1003D0007B689A607B689A683B685B7919467B69A1
:1003E0005B0001FA03F31A437B689A607B685A68E2
:1003F0007B699BB2012101FA03F3DB431A407B685E
:100400005A607B685A683B689B7919467B699BB246
:1004100001FA03F39BB21A437B685A607B68DA687F
:100420007B699BB25B00032101FA03F3DB431A40B3
:100430007B68DA607B68DA683B68DB7919467B6940
:100440005B0001FA03F31A437B68DA607B690133CE
:100450007B617B690F2B85D91C37BD465DF8047B1A
:10046000704700BF80B485B000AF78600B467B80DA
:100470000023FB737B681A697B881340002B02D032
:100480000123FB7301E00023FB73FB7B1846143749
:10049000BD465DF8047B704780B483B000AF7860E0
:1004A0000B467B807B687A881A830C37BD465DF8E3
:1004B000047B704780B483B000AF78600B467B80CC
:1004C0007B687A885A830C37BD465DF8047B704799
:1004D000008000000040000000200000001000002C
:0400000508000000EF
:00000001FF
